:020000020000FC
:1000000033C0189518951895189518951895189542
:10001000189520C018951895189518951895189545
:1000200002C018951895F8949098919A00000000D5
:1000300000009198F1E0E4E310916000E10F1127D6
:10004000F11F049102BF09B7016009BF03E003BFBC
:100050007894189509B70F7F09BF002703BF909ABE
:1000600031E046D090981895F89404E00EBF0FE563
:100070000DBF08B1086008B904E000BF00E007BB8D
:100080000FEF08BB0FE301BB00E002BB00E004BBC5
:1000900001E005BBA89501B5086101BD00E001BD07
:1000A00000271127222733274427EE27FF2702E0C6
:1000B000009360007894FFCF879903C000C0979A9F
:1000C00002C0979800C0989BFECFF5CFF1E0EAE21E
:1000D000E10F24913FEF0CD00BD00AD009D02F773D
:1000E00022BB03B30170100F1A3081F710E0EECF7E
:1000F0004F933F93303009F431E046EA4A95F1F7E7
:100100003A95D9F73F914F9108954F935F936F932D
:100110006FEF5FEF4FEF4A95F1F75A95D9F76A9570
:10012000C1F76F915F914F9108953F065B4F666DE8
:0E0130007D077F6FFFF0E0D1C1B1A292827314
:00000001FF
