:020000020000FC
:100000001AC018951895189518951895189518955B
:100010001895189518951895189518951895189578
:1000200002C0189518953FEF48D0909A3FE645D00A
:10003000909800C01895F89404E00EBF0FE50DBF2E
:1000400008B1086008B904E000BF00E007BB0FEF8B
:1000500008BB0FE301BB00E002BB00E004BB01E012
:1000600005BBA89501B5086101BD00E001BD0027F1
:100070001127222733274427EE27FF27789400C033
:10008000FFCF879903C000C0979A02C0979800C01D
:10009000989BFECFF5CFF0E0EAEEE10F24913FEF21
:1000A0000CD00BD00AD009D02F7722BB03B301703C
:1000B000100F1A3081F710E0EECF4F934FEF4A95B3
:1000C000F1F73A95D9F74F9108954F935F936F9356
:1000D0006FEF5FEF4FEF4A95F1F75A95D9F76A95B1
:1000E000C1F76F915F914F9108953F065B4F666D29
:0400F0007D077F6F9A
:00000001FF
