:020000020000FC
:1000000012C0189518951895189518951895189563
:100010001895189518951895189518951895189578
:10002000189518951895F89404E00EBF0FE50DBFCC
:1000300000E808B904E000BF00E007BB0FEF08BB11
:100040000FEF01BB00E002BB00E004BB01E005BB19
:10005000A89501B5086101BD00E001BD0027112789
:10006000222733274427EE27FF27789401C005C0B5
:1000700006B302BB989B01C0FBCFF0E0EAEAE10FB8
:1000800024913FEF0CD00BD00AD009D02F7722BBA0
:1000900003B30170100F1A3081F710E0EECF4FEF6D
:1000A0004A95F1F73A95D9F708953F065B4F666D8B
:0400B0007D077F6FDA
:00000001FF
