:020000020000FC
:1000000012C0189518951895189518951895189563
:100010001895189518951895189518951895189578
:10002000189518951895F89404E00EBF0FE50DBFCC
:1000300000E808B904E000BF00E007BB0FEF08BB11
:100040000FEF01BB00E002BB00E004BB01E005BB19
:10005000A89501B5086101BD00E001BD0027112789
:10006000222733274427EE27FF27789400C098994A
:10007000FECF879903C000C0979A02C0979800C02E
:10008000989BFECFF4CFF0E0E6EDE10F24913FEF37
:100090000CD00BD00AD009D02F7722BB03B301704C
:1000A000100F1A3081F710E0EECF4FEF4A95F1F7BD
:1000B0003A95D9F708954F935F936F936FEF5FEF82
:1000C0004FEF4A95F1F75A95D9F76A95C1F76F91B5
:1000D0005F914F9108953F065B4F666D7D077F6F7F
:00000001FF
