:020000020000FC
:1000000019C018951895189518951895189518955C
:100010001895189518951895189518951895189578
:100020001895189518951895189518951895189568
:100030001895189508E40093310004E00EBF0FE511
:100040000DBF00E007BB0FEF08BB0FEF01BB00E0E7
:1000500002BB00913000046000BF00E808B9F894CA
:10006000A89504B7007004BF0091210008610093B7
:10007000210000E0009321000027112722273327C9
:10008000442755276627772788279927AA27BB273C
:10009000CC2700E0009301010093000100930201CE
:1000A00000930301009304010027009308010093CB
:1000B000060101EE00930901789406B30F7702BBA5
:1000C00054E113D0006802BB54E10FD0F6CFF8948E
:1000D0000FEF08BB00000000000000000FEF00273A
:1000E00008BB000000000000E8CF00004A95E9F7D7
:1000F000552341F04FEF5A95C1F7662319F05FEF92
:100100006A9599F70000000000000895D711A7B57F
:0A01100071F4F6D1F7F5C0A060000D
:00000001FF
