:020000020000FC
:1000000019C018951895189518951895189518955C
:100010001895189518951895189518951895189578
:100020001895189518951895189518951895189568
:100030001895189508E40093310004E00EBF0FE511
:100040000DBF00E007BB0FEF08BB0FEF01BB00E0E7
:1000500002BB00E004BB00E005BB0091300004607F
:1000600000BF00E808B9F894A89504B7007004BF71
:100070000091210008610093210000E0009321001D
:1000800000271127222733274427552766277894EE
:1000900008E00093020108E5009301011DD022D081
:1000A00008E50093010128D008E00093020131D057
:1000B0000FE0009302012DD039D014D008E5009351
:1000C00001011AD008E80093020123D000EF009349
:1000D00002011FD02BD0E2CF0091010103B904E847
:1000E00006BF089504EA06BF06B707FFFDCF01B1BA
:1000F000087F0830D9F408950091010103B904E89C
:1001000006BF06B707FFFDCF01B1087F083171F4C4
:1001100008950091020103B904E806BF06B707FF7E
:10012000FDCF01B1087F083209F4089504E906BF44
:10013000089500004A95E9F7552341F04FEF5A958D
:10014000C1F7662319F05FEF6A9599F70000000088
:04015000000008950E
:00000001FF
