:020000020000FC
:1000000088C036C018951895189518950CC0189585
:1000100018950AC01895189518951895189518955B
:100020001895189518951895A89A000000000000DA
:10003000A8980F931F932F930091600010910000D8
:1000400020916200273009F44DD008BB09B70F7F1B
:1000500009BF002703BF0027112722270093600054
:1000600010930000209362002F911F910F9118951B
:10007000F8940F931F932F9300916000109100004C
:10008000209162002030A9F421E02093620001E079
:100090000093600011271093000000E002BF09B731
:1000A000016009BF04E003BF2F911F910F91789465
:1000B000189532B7343640F43B3418F400FF12C0C0
:1000C00013C000FF11C012C000FFC0CF12C014C087
:1000D0008894001F111F239508950894001F111F75
:1000E00023950895F5DF08C0F8DF06C0F1DFF0DFE3
:1000F00003C0EEDFF2DF00C0002703BF0093600003
:1001000010930000209362002F911F910F9178941B
:100110001895F89404E00EBF0FE50DBF08B1006814
:1001200008B90BB700640BBF05B7026005BF00E05C
:1001300000BF0FEF07BB00E008BB0BEF01BB04E003
:1001400002BB0FEF04BB00E005BBA89501B5086139
:1001500001BD00E001BD00271127222733274427D6
:10016000EE27FF2700270093600000930000009314
:100170006300009362007894A89A929A06B300FDF7
:1001800001C0FACF00E81395010F3FEF66D03FEFB3
:1001900064D03FEF62D03FEF60D03FEF5ED03FEFE3
:1001A0005CD03FEF5AD03FEF58D03FEF56D03FEFF3
:1001B00054D03FEF52D03FEF50D03FEF4ED03FEF03
:1001C0004CD00030F9F2001F08F009C0A89A929AAA
:1001D0003FE043D09298A8983FE03FD0F2CFA89854
:1001E00092983FE03AD0929AA89A3FE036D0E9CF71
:1001F000A89A929A3FE031D0A89892983FE02DD0EB
:10020000A89892983FE029D0A89A929A3FE025D0EA
:10021000A89A929A3FE021D0A89892983FE01DD0EA
:10022000A89892983FE019D0A89A929A3FE015D0EA
:10023000A89A929A3FE011D0A89892983FE00DD0EA
:10024000A89892983FE009D0A89A929A3FE005D0EA
:100250003FEF03D03FEF01D08FCF4F933F9330302C
:1002600009F431E046EA4A95F1F73A95D9F73F911A
:100270004F9108954F935F936F936FEF5FEF4FEF41
:100280004A95F1F75A95D9F76A95C1F76F915F9141
:100290004F9108953F065B4F666D7D077F6FFFF0BE
:0802A000E0D1C1B1A29282730A
:00000001FF
