:020000020000FC
:1000000038C018951895189518951895189518953D
:100010001895189518951895189518951895189578
:100020001895189518953F065B4F666D7D077F6F95
:10003000FFD7CBC2B9B1AAA1988C3A52532D34380C
:10004000352B3A50432D4156522B49444D4B42508B
:1000500052465346E199FECF1FBB0EBB4DBBE29A01
:10006000E19A0895E199FECF1FBB0EBBE09A4DB314
:100070000895F89408E40093310004E00EBF0FE502
:100080000DBF00913000046000BF00E007BB0FEF20
:1000900008BB00E004BB01E005BB0FE301BB00E0CF
:1000A00002BB00E808B900E805BFF894A89504B7BA
:1000B000007004BF0091210008610093210000E05E
:1000C0000093210000271127222733274427EE27FA
:1000D000FF2702E000936000789476C0A395A730D4
:1000E00048F49AE09FEF3CD09A95E1F70AB7006494
:1000F0000ABF1895AA27F5CFAA95AF3F48F49AE012
:100100009FEF2ED09A95E1F70AB700680ABF1895BD
:10011000A6E0F5CF09B70F7F09BF002703BF909A6C
:1001200031E011D090981895F0E0E0E31091600074
:10013000E10F1127F11F049102BF09B7016009BF48
:1001400003E003BF18954F933F93303009F431E03B
:1001500046EA4A95F1F73A95D9F73F914F910895BC
:100160000F930FEF00000A95E9F70F9108954F9351
:100170005F936F936FEF5FEF4FEF4A95F1F75A95EB
:10018000D9F76A95C1F76F915F914F91089504E691
:1001900010E00CD00092B5000AE010E007D0009209
:1001A000B600902F0AD00092B70008959FEF939564
:1001B000201B310BE0F7200F311FF0E0E6E2E90FE2
:1001C0009927F91FC8950895FFCFF8940FEF08BB42
:1001D00000000000000000000FEF002708BB000037
:0601E00000000000F1CF59
:00000001FF
