:020000020000FC
:1000000012C01895FDC01895189518951895189553
:100010001895F5C0189519C1F4C01895189518953C
:1000200018951895189504E00EBF0FE50DBF00B7A1
:1000300004E000BF0FE007BB00E008BB07E001BB26
:1000400000E002BB0FE004BB00E005BB05E003BF1E
:1000500000E808B907E609B908E90AB907E800BDE8
:10006000A89501B5086101BD00E001BD929841E08D
:10007000882778944BC04030F1F78030D9F3B0E056
:10008000A0E6A3953327B31F3D912D91F2E0E2E95D
:1000900094D0031759F7121749F73D912D9101910B
:1000A000C895002D1191C895102D0317F9F6121758
:1000B000E9F6019182D03D912D91031721F4121799
:1000C00011F44FD011C0019178D0031721F4121709
:1000D00011F447D012C0019170D0031721F4121708
:1000E00011F43FD010C0C2CF003001F2E02FFF2743
:1000F000EE1FFF1FC895002D09C00030A1F3E02FAF
:10010000FF27008103C005BB05B300C0B0E0A0E835
:100110001AE31D93F2E0E2E9202F4FD00D931D93D7
:100120000191C895002D1191C895102D0D931D9327
:100130000BD0022F0ED0202F032F0BD0302F2D935A
:100140003D930BE20C933FC0322F22953F702F70EE
:1001500008950A3018F410E3010F089517E3010F12
:1001600008951D9111D00F3F69F0000F000F000F8F
:10017000000F302F1D9108D00F3F21F0202F320F9C
:10018000032F0895002708951F32A8F01A3318F49A
:100190001053012F08951B3520F4103460F01054D3
:1001A00005C01B3740F4103630F01056173018F4E5
:1001B00009E0010F08950FEF0895C895002D1191E2
:1001C000C895102D089574EB69EC68D06A95E9F72D
:1001D0007A95D1F774EB69EC61D06A95E9F77A9575
:1001E000D1F774EB69EC5AD06A95E9F77A95D1F7B3
:1001F000929A08E20AB900004030F1F737CF18951B
:1002000018950F930FB70F93403021F441E0929A65
:10021000F0E0E0E851915CB900005D9BFECF5B32FD
:1002200081F45E9BFECF0BB100640BB908E90AB9FB
:100230009298442778E069EC31D06A95E9F77A958D
:10024000D1F70F910FBF0F9118950F930FB70F9321
:10025000803019F4F0E0E0E641E09BB15CB19C71C4
:1002600009F050E05193803011F45A3321F4839512
:100270005B3219F401C0882744270F910FBF0F91FB
:1002800018953A52532D3438352B3A50432D415658
:10029000522B49444D4B4250524653466F936FEF99
:0A02A00000006A95E9F76F910895D8
:00000001FF
